:020000040800F2
:10000000C01E00205D1B00082D180008491B0008B9
:10001000491B0008491B0008491B0008000000009C
:10002000000000000000000000000000611C00084B
:10003000491B0008000000002D1C0008252A0008AC
:10004000E11D0008E11D0008E11D0008E11D000898
:10005000E11D0008E11D0008E11D0008E11D000888
:10006000E11D0008E11D0008E11D0008E11D000878
:10007000E11D0008E11D0008E11D0008E11D000868
:10008000E11D0008E11D0008E11D0008E11D000858
:10009000E11D0008E11D0008E11D0008E11D000848
:1000A000E11D0008E11D0008E11D0008E11D000838
:1000B000E11D0008E11D0008E11D0008E11D000828
:1000C000E11D0008E11D0008E11D0008E11D000818
:1000D000E11D0008E11D0008E11D0008E11D000808
:1000E000E11D0008E11D0008E11D0008E11D0008F8
:1000F000E11D0008E11D0008E11D0008E11D0008E8
:10010000E11D0008E11D0008E11D0008E11D0008D7
:10011000E11D0008E11D0008E11D0008E11D0008C7
:10012000E11D0008E11D0008E11D0008E11D0008B7
:10013000E11D0008E11D0008E11D0008E11D0008A7
:10014000E11D0008E11D0008E11D0008E11D000897
:10015000E11D0008E11D0008E11D0008E11D000887
:10016000E11D0008E11D0008E11D0008E11D000877
:10017000E11D0008E11D0008E11D0008E11D000867
:10018000E11D0008E11D0008E11D0008E11D000857
:10019000E11D0008E11D0008E11D0008E11D000847
:0C01A000E11D0008E11D0008E11D000841
:0401AC00FFFFFFFF53
:1001B00081F0004102E000BF83F0004330B54FEA18
:1001C00041044FEA430594EA050F08BF90EA020F85
:1001D0001FBF54EA000C55EA020C7FEA645C7FEA18
:1001E000655C00F0E2804FEA5454D4EB5555B8BF3B
:1001F0006D420CDD2C4480EA020281EA030382EAAC
:10020000000083EA010180EA020281EA0303362D3D
:1002100088BF30BD11F0004F4FEA01314FF4801C10
:100220004CEA113102D0404261EB410113F0004F22
:100230004FEA03334CEA133302D0524263EB4303D9
:1002400094EA050F00F0A780A4F10104D5F1200E77
:100250000DDB02FA0EFC22FA05F2801841F10001D2
:1002600003FA0EF2801843FA05F359410EE0A5F1A6
:1002700020050EF1200E012A03FA0EFC28BF4CF0D7
:10028000020C43FA05F3C01851EBE37101F000458D
:1002900007D54FF0000EDCF1000C7EEB00006EEB9A
:1002A0000101B1F5801F1BD3B1F5001F0CD3490824
:1002B0005FEA30004FEA3C0C04F101044FEA44527B
:1002C00012F5800F80F09A80BCF1004F08BF5FEA02
:1002D000500C50F1000041EB045141EA050130BDE2
:1002E0005FEA4C0C404141EB0101013C28BFB1F5F4
:1002F000801FE9D291F0000F04BF01460020B1FA3F
:1003000081F308BF2033A3F10B03B3F120020CDA11
:100310000C3208DD02F1140CC2F10C0201FA0CF0EF
:1003200021FA02F10CE002F11402D8BFC2F1200C54
:1003300001FA02F120FA0CFCDCBF41EA0C0190400A
:10034000E41AA2BF01EB0451294330BD6FEA040453
:100350001F3C1CDA0C340EDC04F11404C4F120023E
:1003600020FA04F001FA02F340EA030021FA04F350
:1003700045EA030130BDC4F10C04C4F1200220FAA7
:1003800002F001FA04F340EA0300294630BD21FAE5
:1003900004F0294630BD94F0000F83F4801306BFAB
:1003A00081F480110134013D4EE77FEA645C18BF9F
:1003B0007FEA655C29D094EA050F08BF90EA020F36
:1003C00005D054EA000C04BF1946104630BD91EA2E
:1003D000030F1EBF0021002030BD5FEA545C05D131
:1003E0004000494128BF41F0004130BD14F5800470
:1003F0003CBF01F5801130BD01F0004545F0FE41E4
:1004000041F470014FF0000030BD7FEA645C1ABF18
:10041000194610467FEA655C1CBF0B46024650EA4F
:10042000013406BF52EA033591EA030F41F400217B
:1004300030BD00BF90F0000F04BF0021704730B501
:100440004FF4806404F132044FF000054FF00001D6
:1004500050E700BF90F0000F04BF0021704730B597
:100460004FF4806404F1320410F0004548BF40426C
:100470004FF000013EE700BF42004FEAE2014FEAC1
:1004800031014FEA02701FBF12F07F4393F07F4F9C
:1004900081F06051704732F07F4208BF704793F09F
:1004A0007F4F04BF41F40021704730B54FF46074B2
:1004B00001F0004521F000411CE700BF50EA0102B5
:1004C00008BF704730B54FF000050AE050EA01025E
:1004D00008BF704730B511F0004502D5404261EBCE
:1004E00041014FF4806404F132045FEA915C3FF40F
:1004F000D8AE4FF003025FEADC0C18BF03325FEAAC
:10050000DC0C18BF033202EBDC02C2F1200300FA5C
:1005100003FC20FA02F001FA03FE40EA0E0021FA81
:1005200002F11444BDE600BF70B54FF0FF0C4CF46F
:10053000E06C1CEA11541DBF1CEA135594EA0C0F21
:1005400095EA0C0F00F0DEF82C4481EA030621EA5C
:100550004C5123EA4C5350EA013518BF52EA033597
:1005600041F4801143F4801338D0A0FB02CE4FF049
:100570000005E1FB02E506F00042E0FB03E54FF079
:100580000006E1FB03569CF0000F18BF4EF0010E71
:10059000A4F1FF04B6F5007F64F5407404D25FEA6D
:1005A0004E0E6D4146EB060642EAC62141EA555120
:1005B0004FEAC52040EA5E504FEACE2EB4F1FD0C62
:1005C00088BFBCF5E06F1ED8BEF1004F08BF5FEAE0
:1005D000500E50F1000041EB045170BD06F0004692
:1005E00046EA010140EA020081EA0301B4EB5C043F
:1005F000C2BFD4EB0C0541EA045170BD41F4801137
:100600004FF0000E013C00F3AB8014F1360FDEBF5B
:10061000002001F0004170BDC4F10004203C35DA37
:100620000C341BDC04F11404C4F1200500FA05F3BA
:1006300020FA04F001FA05F240EA020001F000425B
:1006400021F0004110EBD37021FA04F642EB0601D1
:100650005EEA430E08BF20EAD37070BDC4F10C04FB
:10066000C4F1200500FA04F320FA05F001FA04F2BF
:1006700040EA020001F0004110EBD37041F10001AB
:100680005EEA430E08BF20EAD37070BDC4F12005B6
:1006900000FA05F24EEA020E20FA04F301FA05F21E
:1006A00043EA020321FA04F001F0004121FA04F2C6
:1006B00020EA020000EBD3705EEA430E08BF20EA96
:1006C000D37070BD94F0000F0FD101F000464000D0
:1006D00041EB010111F4801F08BF013CF7D041EA52
:1006E000060195F0000F18BF704703F00046520056
:1006F00043EB030313F4801F08BF013DF7D043EA27
:100700000603704794EA0C0F0CEA135518BF95EADC
:100710000C0F0CD050EA410618BF52EA4306D1D163
:1007200081EA030101F000414FF0000070BD50EA82
:10073000410606BF1046194652EA430619D094EA0C
:100740000C0F02D150EA013613D195EA0C0F05D1F6
:1007500052EA03361CBF104619460AD181EA03014A
:1007600001F0004141F0FE4141F470014FF0000002
:1007700070BD41F0FE4141F4780170BD70B54FF09D
:10078000FF0C4CF4E06C1CEA11541DBF1CEA13551D
:1007900094EA0C0F95EA0C0F00F0A7F8A4EB0504FF
:1007A00081EA030E52EA03354FEA013100F08880F6
:1007B0004FEA03334FF0805545EA131343EA1263BF
:1007C0004FEA022245EA111545EA10654FEA002674
:1007D0000EF000419D4208BF964244F1FD0404F52D
:1007E000407402D25B084FEA3202B61A65EB030589
:1007F0005B084FEA32024FF480104FF4002CB6EB46
:10080000020E75EB030E22BFB61A754640EA0C00C5
:100810005B084FEA3202B6EB020E75EB030E22BF05
:10082000B61A754640EA5C005B084FEA3202B6EB46
:10083000020E75EB030E22BFB61A754640EA9C0005
:100840005B084FEA3202B6EB020E75EB030E22BFD5
:10085000B61A754640EADC0055EA060E18D04FEA93
:10086000051545EA16754FEA06164FEAC30343EA33
:1008700052734FEAC2025FEA1C1CC0D111F4801F00
:100880000BD141EA00014FF000004FF0004CB6E7F9
:1008900011F4801F04BF01430020B4F1FD0C88BF98
:1008A000BCF5E06F3FF6AFAEB5EB030C04BFB6EBA3
:1008B000020C5FEA500C50F1000041EB045170BD96
:1008C0000EF0004E4EEA113114EB5C04C2BFD4EBC3
:1008D0000C0541EA045170BD41F480114FF0000E47
:1008E000013C90E645EA060E8DE60CEA135594EAC3
:1008F0000C0F08BF95EA0C0F3FF43BAF94EA0C0FC6
:100900000AD150EA01347FF434AF95EA0C0F7FF43A
:1009100025AF104619462CE795EA0C0F06D152EA8E
:1009200003353FF4FDAE1046194622E750EA410672
:1009300018BF52EA43067FF4C5AE50EA41047FF483
:100940000DAF52EA43057FF4EBAE12E74FF0FF3CE8
:1009500006E000BF4FF0010C02E000BF4FF0010CB9
:100960004DF804CD4FEA410C7FEA6C5C4FEA430C32
:1009700018BF7FEA6C5C1BD001B050EA410C0CBF81
:1009800052EA430C91EA030F02BF90EA020F0020E3
:10099000704710F1000F91EA030F58BF994208BF4A
:1009A00090422CBFD8176FEAE37040F00100704707
:1009B0004FEA410C7FEA6C5C02D150EA013C07D15E
:1009C0004FEA430C7FEA6C5CD6D152EA033CD3D0A9
:1009D0005DF8040B704700BF8446104662468C46A3
:1009E0001946634600E000BF01B5FFF7B7FF0028D6
:1009F00048BF10F1000F01BD4DF808EDFFF7F4FFFF
:100A00000CBF012000205DF808FB00BF4DF808ED89
:100A1000FFF7EAFF34BF012000205DF808FB00BFAC
:100A20004DF808EDFFF7E0FF94BF012000205DF8CE
:100A300008FB00BF4DF808EDFFF7CEFF94BF012083
:100A400000205DF808FB00BF4DF808EDFFF7C4FF7C
:100A500034BF012000205DF808FB00BF4FEA4102CF
:100A6000B2F1E04324BFB3F5001CDCF1FE5C0DD90C
:100A700001F0004C4FEAC0024CEA5070B2F1004F56
:100A800040EB830008BF20F00100704711F0804F59
:100A900021D113F13872BCBF01F00040704741F41E
:100AA00080114FEA5252C2F11802C2F1200C10FA22
:100AB0000CF320FA02F018BF40F001004FEAC12306
:100AC0004FEAD32303FA0CFC40EA0C0023FA02F3AA
:100AD0004FEA4303CCE77FEA625307D150EA013380
:100AE0001EBF4FF0FE4040F44000704701F0004050
:100AF00040F0FE4040F40000704700BF80F000402E
:100B000002E000BF81F0004142001FBF5FEA4103E5
:100B100092EA030F7FEA226C7FEA236C6AD04FEAE5
:100B20001262D2EB1363C1BFD2184140484041402A
:100B3000B8BF5B42192B88BF704710F0004F40F4DC
:100B4000000020F07F4018BF404211F0004F41F4F8
:100B5000000121F07F4118BF494292EA030F3FD0C4
:100B6000A2F1010241FA03FC10EB0C00C3F12003D7
:100B700001FA03F100F0004302D5494260EB400066
:100B8000B0F5000F13D3B0F1807F06D340084FEAD1
:100B9000310102F10102FE2A51D2B1F1004F40EBC6
:100BA000C25008BF20F0010040EA0300704749002E
:100BB00040EB0000013A28BFB0F5000FEDD2B0FACB
:100BC00080FCACF1080CB2EB0C0200FA0CF0AABFEE
:100BD00000EBC25052421843BCBFD040184370478C
:100BE00092F0000F81F4000106BF80F40000013292
:100BF000013BB5E74FEA41037FEA226C18BF7FEA69
:100C0000236C21D092EA030F04D092F0000F08BFAA
:100C10000846704790EA010F1CBF0020704712F091
:100C20007F4F04D1400028BF40F00040704712F1D0
:100C300000723CBF00F50000704700F0004343F035
:100C4000FE4040F4000070477FEA226216BF08466B
:100C50007FEA23630146420206BF5FEA412390EA2E
:100C6000010F40F4800070474FF0000304E000BF24
:100C700010F0004348BF40425FEA000C08BF7047D5
:100C800043F0964301464FF000001CE050EA010299
:100C900008BF70474FF000030AE000BF50EA0102AE
:100CA00008BF704711F0004302D5404261EB41019B
:100CB0005FEA010C02BF84460146002043F0B643C0
:100CC00008BFA3F18053A3F50003BCFA8CF2083AE5
:100CD000A3EBC25310DB01FA02FC634400FA02FCEE
:100CE000C2F12002BCF1004F20FA02F243EB0200F5
:100CF00008BF20F00100704702F1200201FA02FC57
:100D0000C2F1200250EA4C0021FA02F243EB020049
:100D100008BF20EADC7070474FF0FF0C1CEAD0528D
:100D20001EBF1CEAD15392EA0C0F93EA0C0F6FD04E
:100D30001A4480EA010C400218BF5FEA41211ED02C
:100D40004FF0006343EA501043EA5111A0FB013118
:100D50000CF00040B1F5000F3EBF490041EAD371ED
:100D60005B0040EA010062F17F02FD2A1DD8B3F169
:100D7000004F40EBC25008BF20F00100704790F0D8
:100D8000000F0CF0004C08BF49024CEA502040EA2A
:100D900051207F3AC2BFD2F1FF0340EAC2507047F0
:100DA00040F400004FF00003013A5DDC12F1190F2E
:100DB000DCBF00F000407047C2F10002410021FAA0
:100DC00002F1C2F1200200FA02FC5FEA310040F1B8
:100DD000000053EA4C0308BF20EADC70704792F031
:100DE000000F00F0004C02BF400010F4000F013A69
:100DF000F9D040EA0C0093F0000F01F0004C02BF64
:100E0000490011F4000F013BF9D041EA0C018FE7D2
:100E10000CEAD15392EA0C0F18BF93EA0C0F0AD0D8
:100E200030F0004C18BF31F0004CD8D180EA0100FE
:100E300000F00040704790F0000F17BF90F0004F97
:100E4000084691F0000F91F0004F14D092EA0C0F79
:100E500001D142020FD193EA0C0F03D14B0218BF0C
:100E6000084608D180EA010000F0004040F0FE4052
:100E700040F40000704740F0FE4040F440007047EE
:100E80004FF0FF0C1CEAD0521EBF1CEAD15392EA6D
:100E90000C0F93EA0C0F69D0A2EB030280EA010C5D
:100EA00049024FEA402037D04FF0805343EA1111F6
:100EB00043EA10130CF000408B4238BF5B0042F154
:100EC0007D024FF4000C8B4224BF5B1A40EA0C00F9
:100ED000B3EB510F24BFA3EB510340EA5C00B3EB2B
:100EE000910F24BFA3EB910340EA9C00B3EBD10F19
:100EF00024BFA3EBD10340EADC001B0118BF5FEA6B
:100F00001C1CE0D1FD2A3FF650AF8B4240EBC25093
:100F100008BF20F0010070470CF0004C4CEA502054
:100F20007F32C2BFD2F1FF0340EAC250704740F4A3
:100F300000004FF00003013A37E792F0000F00F095
:100F4000004C02BF400010F4000F013AF9D040EA13
:100F50000C0093F0000F01F0004C02BF490011F4A7
:100F6000000F013BF9D041EA0C0195E70CEAD1539F
:100F700092EA0C0F08D142027FF47DAF93EA0C0F86
:100F80007FF470AF084676E793EA0C0F04D14B026A
:100F90003FF44CAF08466EE730F0004C18BF31F01C
:100FA000004CCAD130F000427FF45CAF31F0004316
:100FB0007FF43CAF5FE700BF4FF0FF3C06E000BFAF
:100FC0004FF0010C02E000BF4FF0010C4DF804CDD2
:100FD0004FEA40024FEA41037FEA226C18BF7FEAE2
:100FE000236C11D001B052EA530C18BF90EA010FE4
:100FF00058BFB2EB030088BFC81738BF6FEAE17073
:1010000018BF40F0010070477FEA226C02D15FEA0E
:10101000402C05D17FEA236CE4D15FEA412CE1D07A
:101020005DF8040B704700BF844608466146FFE741
:101030000FB5FFF7C9FF002848BF10F1000F0FBD23
:101040004DF808EDFFF7F4FF0CBF012000205DF81C
:1010500008FB00BF4DF808EDFFF7EAFF34BF0120A1
:1010600000205DF808FB00BF4DF808EDFFF7E0FF3A
:1010700094BF012000205DF808FB00BF4DF808ED8B
:10108000FFF7D2FF94BF012000205DF808FB00BFEE
:101090004DF808EDFFF7C8FF34BF012000205DF8D0
:1010A00008FB00BF4FEA4002B2F1FE4F0FD34FF0F2
:1010B0009E03B3EB12620DD94FEA002343F00043C5
:1010C00010F0004F23FA02F018BF404270474FF073
:1010D0000000704712F1610F01D1420205D110F0FA
:1010E000004008BF6FF0004070474FF000007047AD
:1010F00053B94AB9002908BF00281CBF4FF0FF317F
:101100004FF0FF3000F02AB8ADF1080C6DE904CEC5
:1011100000F05DF8DDF804E0DDE9022304B070477B
:10112000D0B50C4B002206460F46FFF7FDF900F044
:1011300017F80446FFF77EF9074B0022FFF7F4F992
:1011400002460B4630463946FFF736F800F008F8FD
:101150002146D0BD0000F03D0000F041704700BFC7
:101160004A0011D212F5001211D20DD56FF4787326
:10117000B3EB62520ED44FEAC12343F0004343EA7B
:10118000505323FA02F070474FF00000704750EAC6
:10119000013002D14FF0FF3070474FF00000704730
:1011A00038B50022002304460D46FFF72FFC28B96E
:1011B00020462946BDE83840FFF7B2BF204605F17A
:1011C0000041FFF7ADFF404261EB410138BD2DE921
:1011D000F04786468C460846089E154674461946D2
:1011E000002B40F0C2808542B2FA82F245D94AB162
:1011F000C2F1200300FA02FC2EFA03F3954043EA01
:101200000C0C94404FEA154EA8B2BCFBFEF8230C20
:101210000EFB18CC08FB00F943EA0C43994528D98A
:10122000EB1808F1FF3704D2994502D9A8F102075B
:101230002B44A3EB0903A4B2B3FBFEFC0EFB1C334F
:101240000CFB00F044EA0344A04214D92C190CF121
:10125000FF3304D2A04202D9ACF102032C44241A79
:1012600043EA07401EB1D440002334607360BDE8F8
:10127000F0874746DDE76346F1E792BB431B012158
:101280004FEA154EAFB2B3FBFEFC200C0EFB1C3335
:101290000CFB07F840EA0343984562D9EB180CF1C0
:1012A000FF3004D2984502D9ACF102002B44A3EBE5
:1012B0000803A4B2B3FBFEFC0EFB1C330CFB07F7C8
:1012C00044EA0344A7424ED92C190CF1FF3304D24F
:1012D000A74202D9ACF102032C44E41B43EA0040CC
:1012E000C0E7C2F1200320FA03F1954090402EFAA6
:1012F00003F303434FEA154EAFB2B1FBFEFC0EFB06
:101300001C10190C0CFB07F841EA0041884504FA4F
:1013100002F422D969180CF1FF3004D2884502D9B1
:10132000ACF102002944A1EB08019BB2B1FBFEFC29
:101330000EFB1C110CFB07F743EA01439F420ED939
:10134000EB180CF1FF3104D29F4202D9ACF102013B
:101350002B44DB1B41EA004192E76046E3E761462C
:10136000F7E76046A3E76346B7E7834206D916B9B5
:10137000002108467BE7C6E900E0F9E7B3FA83F706
:101380008FB9834201D3724508D8BEEB020460EBEB
:10139000030301209C461EB9002168E73846FAE79E
:1013A000C6E9004CF8E7C7F1200CBB4022FA0CF468
:1013B0001C432EFA0CF120FA0CF3B84001434FEA1B
:1013C00014490EFA07F5B3FBF9F81FFA84FE09FB7E
:1013D00018300B0C08FB0EFA43EA00439A4502FA58
:1013E00007F240D9E31808F1FF3004D29A4502D938
:1013F000A8F102002344A3EB0A0389B2B3FBF9F876
:1014000009FB183308FB0EFE41EA03418E452CD937
:10141000611808F1FF3304D28E4502D9A8F1020306
:10142000214443EA0040A0FB0298A1EB0E01414594
:10143000CE46434602D306D14D4504D2B9EB020E47
:1014400068EB04030138002EA6D0B5EB0E0261EB69
:10145000030101FA0CFC22FA07F34CEA0303F940FA
:10146000C6E9003198E74046C5E74346D9E710F89A
:10147000012B11F8013B012A28BF9A42F7D0D01A5C
:1014800070470000000000002DE9F74F0446C868CF
:1014900016469A460D46FEF7EFFF8046F0688946ED
:1014A000FEF7EAFF02460B4640464946FFF73CF886
:1014B000DDE90C7B80468946BAF1000F1BD0DAF8D3
:1014C0000C00FEF7D9FF02460B4640464946FEF7A0
:1014D00073FE8046F86821F00049FEF7CDFF024612
:1014E0000B4640464946FFF749F90FA3D3E90023CD
:1014F000FFF796FA50B13B46324629462046CDF8D2
:1015000030B003B0BDE8F04F02F02ABF084B0093A3
:1015100020466569074A084940F24313A84701205D
:1015200003B0BDE8F08F00BF7B14AE47E17A943F73
:10153000E6AF00083BAF000890AF00082DE9F04F80
:10154000604A614F614B3B601368614D13F00103CA
:101550008FB00AD15F492B62EB62012329601360CF
:101560005D495E4A284604F0FCFF07A803F032FB01
:101570005748092104F0FBFD38B3594806F05DFBDC
:101580005848092106F059FB574C236813F0010312
:1015900011D1CDE901334FF4006300934C4A534B12
:1015A0003968534806F02AF801234C4A51495048FB
:1015B000236004F0D6FF504F4D48386001F0A2FF81
:1015C000044618B30FB0BDE8F08F2B6A33B14B4817
:1015D000092106F032FB4A480121D3E707AC0FCCC2
:1015E000484E0FC694E8070001232B62EB6A86E899
:1015F000070005EB830109224A62AA6103F10A028E
:10160000414945F822100133EB62BDE701463868D5
:10161000DFF8F8A001F056FE3D49CAF800004FF48B
:101620007A723C4804F076FA04F099FD0646814649
:10163000DAF800804FF47A75B4FBF5FB05FB1B4527
:10164000D8F8042005922846FFF712FB3249FFF72D
:1016500063FB3249FFF714FCD8F80C10FFF710FCBD
:101660000490D8F81000FFF703FB01460498FFF739
:101670004BFAFFF717FD059A1070386802F040F832
:1016800000289FD155B9D4B104F069FD5946A0EBAB
:1016900009020546224804F03DFAA9461C4B0134D4
:1016A0009C42C5D104F05BFD4FF47A73811B594312
:1016B0001C48B1FBF4F104F02DFA002082E701246C
:1016C000B6E700BFF8020020340300202C8C00088D
:1016D000FC020020D0950008F760000838030020C5
:1016E000B29C0008E19C000838020020E4040020BD
:1016F0003C0200208F76000830030020029D000885
:10170000339D000800030020494500082C030020F9
:1017100040420F00469D0008DB0FC94000007A449C
:10172000739D00087D9D000838B5044C044DAC4203
:1017300000D338BD54F8043B9847F8E7008C000804
:10174000088C000838B5054C256804EB850405B9FC
:1017500038BD54F80439013D9847F8E7F48B000888
:10176000014B1B68184700BF00000020014B1860A8
:10177000704700BF0000002030B585B004460D461C
:1017800010220021684606F038FF02238DF802304F
:101790002A46044B01932146684604F0CDF905B072
:1017A00030BD00BF6117000880B505460E461746DC
:1017B000984603F097FF034606F0B2FFDFF8189053
:1017C000044649F80030424630463946A84754F8A6
:1017D000090000F0D9F900BF08000000034A53686F
:1017E00023F0020353600020704700BF002004E094
:1017F000084B1A6842F480721A601A6842F4007248
:101800001A601A6842F480621A60034B034A1A6035
:1018100000207047003C02404C0000200024F400EF
:10182000014B036000207047E495000808B5034BA6
:101830001B689847BDE8084000F026B80400002067
:1018400030BFFFF7FDBF00BF2DE9F0410B4EDFF8C1
:10185000308006EB0807CC1B054632460949204676
:1018600006F0BDFEA01942460021083C06F0C5FE68
:101870002C6707F10800BDE8F08100BF0000000000
:1018800008000000088C0008074A936893F90E10BE
:10189000002907DB526993421FBF044A536843F093
:1018A00080535360704700BF9804002000ED00E0B3
:1018B00070B5264B15469A6A12F0100F9A6A14BF3B
:1018C0001124102412F0080F9A6A18BF12249207EC
:1018D00006460AD5586B9A6A140634D519B19A6A25
:1018E00022F080029A62132401E06FF01500174B7A
:1018F0009A6A12F0010F9A6A18BF142412F0200F8E
:101900009A6A18BF1524D20602D49B6A9B070AD58F
:101910000E4B5B68190506D5314600F017FA10B179
:1019200080F309880224094B9A6A920642BF5A6AD8
:1019300022F400525A629A6A42F0FF029A6200232D
:101940002B70204670BD6FF01500CCE700ED00E075
:10195000134B9A6A12F0007F9A6A14BF1E201D2052
:1019600012F0807F9A6A18BF1F2012F4002F9A6A23
:1019700018BF212012F4802F9A6A18BF222012F477
:10198000003F9A6A18BF232012F4803F9A6A6FEAD8
:1019900002426FEA12429A6218BF2420704700BFC9
:1019A00000ED00E010B5194B0246986A9C6A10F4ED
:1019B000805F14BF1720162014F4006F9C6A18BFB4
:1019C0001820A40509D5986B986A000404D51AB1AB
:1019D0009A6A22F400429A6219200C4B9A6A12F415
:1019E000806F9A6A18BF1A20D2050CD49B6A13F430
:1019F000005F18BF1C20054A936A43F47F4393623B
:101A000000230B7010BD1B20F5E700BF00ED00E0C8
:101A1000F0B5484B5B688BB00446C3F30803002560
:101A200085F31188BFF36F8F02F07F40B0F17F4FD5
:101A300011D102F00C0008280DD010074CBF0C4645
:101A400001250022033B8DF80720032B05D8DFE892
:101A500003F0246367602C46F3E700239DF807201A
:101A6000CAB902AE04F1200720686168324603C299
:101A70000834BC421646F7D1099A002D54D0C2F35F
:101A8000080121B96FEA52226FEA4222099202A9A3
:101A9000184604F05CFD0BB0F0BD264BDA6A9107E6
:101AA000DBD4DA6A002AD8DBDA6A5200D5D55A6963
:101AB000A16942F480725A61BFF34F8FBFF36F8FF9
:101AC0005A6931F8021C22F480725A61BFF34F8FB9
:101AD000BFF36F8F4DF6027291420AD09A6AD2B26A
:101AE0004AB10DF1070201212046FFF7E1FE03464E
:101AF000B4E72368B2E79A6A12F47F4F05D00DF17C
:101B000007010120FFF74EFFF1E79B6AB3F5803F25
:101B1000A3D3FFF71DFFEAE70DF107020021E3E77A
:101B20000DF107010020EDE722F4FF7222F001021F
:101B3000ACE700BF00ED00E0024A536943F0100338
:101B40005361704700ED00E0EFF30880EFF3098187
:101B500001B57246FFF75CFF01BD00BF102080F3A6
:101B6000118808484FF40461401880F30988EFF3A6
:101B700014800221084380F31488BFF36F8F00F0B4
:101B8000A5F80000000D0020084B9B6883420BD194
:101B9000EFF3058343B1064B5A6842F080525A6016
:101BA0005A6A22F400425A6206F0DBBC9804002014
:101BB00000ED00E0094A93686FF00A01996708494F
:101BC00058674B6843F080534B60002383F31188C0
:101BD000BFF36F8F9368986F704700BF9804002021
:101BE00000ED00E010B50446EFF31183102383F3FA
:101BF0001288BFF36F8F0A4B58699860094B4FF0FA
:101C000000625A60084B026F1A600022436F4267FD
:101C100083F31188BFF36F8F00F000F9204610BDE9
:101C20009804002000ED00E03C0300200B498A6886
:101C30004FF030001044EFF3098C80E8F01F744639
:101C40007046FFF7CFFFA64604498A6802F13000CC
:101C500090E8F01F8CF3098870470000980400207A
:101C60001EF0040F0CBFEFF30880EFF309808169C9
:101C700011F8021C0229FFD001B504F06EFC01BD71
:101C800040B2002807DB044A4109012300F01F008D
:101C9000834042F82130704700E100E040B2002864
:101CA000A8BF00F1604001F10101B8BF064B4FEA47
:101CB0000111ACBF00F5614000F00F00C9B2B4BF24
:101CC000195480F80013704714ED00E00F4A08B56E
:101CD0000F4B22F07F029A60BFF34F8FBFF36F8FDD
:101CE000D3F8882022F47002C3F88820EFF314831D
:101CF00023F0040383F31488BFF36F8F03F036F9E6
:101D000003F07CFD00F060F803F07EF900000008AD
:101D100000ED00E042F8203C009B42F81C3C0A49E0
:101D2000019B42F8183C029B42F8143C21F001014F
:101D30004FF0807342F8043C42F8081C0023203A1C
:101D400002654367704700BFA9170008094A0346A8
:101D5000906870B113F1160F006E05D0A0F140022B
:101D60009A4205D8834203D2814228BF002070479F
:101D7000002070479804002008B515460B4A0C4B0C
:101D80009060026F1A600E4600F048F82C4686F309
:101D900009884FF00000074B984720464FF000019C
:101DA0004FF000024FF00003034C2047980400203E
:101DB0003C03002075650008A9170008014B10229C
:101DC0001A61704700ED00E0044800231021C2189A
:101DD00001335B2B82F80013F9D1704700E100E07A
:101DE00008B5EFF30583064A103B02EBC30152F836
:101DF000330049688847BDE80840FFF745BD00BF8C
:101E00001C890008024B034A0348012100F076B800
:101E10000000032000000020E4950008026E054B3E
:101E2000403A1A60044A4021C3E9011218460121D0
:101E300000F06EB84003002000000B15084AC2F8FD
:101E400098000B6823F01F03034343F01003C2F80C
:101E50009C308B6843F00103C2F8A030704700BF8C
:101E600000ED00E02DE9F043DFF8608085B00E461C
:101E70001F4604464FF00009B14523DA6068D8B127
:101E80003FB1411E08421BD11F2819D923681942AE
:101E900016D12368019304F081FBA36803430393E5
:101EA000D8F89050C5F30725D0B2013DA84207D815
:101EB00001A9FFF7C3FF421C09F101090C34DBE75C
:101EC0006FF01502104605B0BDE8F08300ED00E0AC
:101ED000044B0522C3F89420BFF34F8FBFF36F8FDD
:101EE000704700BF00ED00E0BFF35F8F024B0022A0
:101EF000C3F89420704700BF00ED00E010B5034C1C
:101F000001232278FFF7AEFF207010BDE40C002003
:101F100008B50B4A00231278FFF7A4FF10F1160F43
:101F200007D0084A0021D2F89030C3F30723984223
:101F300000DB08BDC2F89800C2F8A0100130F2E73B
:101F4000E40C002000ED00E02DE9F043534B544C2D
:101F5000D3F890302568C3F307239D4285B000F283
:101F60009A80FFF7C1FF00200C2685421AD14D4C04
:101F70004D4F25706846FFF753FCDFF82081DFF8EE
:101F80002C9106460025AE4213D123784349002008
:101F9000D1F89020C2F30722934276DBFFF798FF37
:101FA000002042E0616806FB0011FFF747FF0130A7
:101FB000DBE7009800EB05114FEA051CCB683B40BE
:101FC000B3F5000F48D00AD8B3F5001F30D0B3F5F1
:101FD000800F36D0B3F5801F10D00135D3E7B3F1B1
:101FE000807F42D0B3F1007FF7D150F80C30886881
:101FF0004A6804F0D3FA40F4802009E050F80C302D
:1020000088684A6804F0CAFA40F0885040F43020EA
:10201000CDE901230390D8F890302078C3F307234B
:10202000013B98422AD96FF0150005B0BDE8F08356
:1020300050F80C3088684A6804F0B0FA40EA0900A9
:10204000E6E750F80C3088684A6804F0A7FA40F0D8
:10205000E06040F40030DBE750F80C3088684A68F4
:1020600004F09CFA40F08270D2E750F80C30886897
:102070004A6804F093FA40F08870C9E701A9FFF7B5
:10208000DDFE237801332370A7E7C1F89830C1F84B
:10209000A00001337CE74FF0FF30C6E700ED00E021
:1020A000F0950008E40C00200000F0FF000008118B
:1020B00008B5024B1B689847002008BD4C03002060
:1020C000034B044A1860937843F0020393707047FF
:1020D0004C0300200800002008B5054804F029FA48
:1020E000002383F31188BFF36F8F0423184602DFA8
:1020F0009E9D000808B50649064821F00701C1F178
:10210000005202F5403204F0D5F9002008BD00BFAE
:10211000071F00205003002003484FF0FF324FF00C
:10212000FF3302F0DDBF00BF18000020014803F0BC
:102130004FB800BF1800002038B50546FFF7ECFF88
:1021400008482A46082104F04DF9044628B925B16B
:1021500006F0E6FA044B0C221A50FFF7E7FF204680
:1021600038BD00BF500300200C00000010B504462D
:10217000FFF7D2FF2146034804F0FCF8BDE8104009
:10218000FFF7D4BF500300202DE9F0410F4E104F50
:10219000054600244FF001082B7853FA84F01F28DD
:1021A0000DDC726908FA00F333EA020207D17361A9
:1021B00057F830301BB107EBC002516898476A7876
:1021C0000134E3B29A42E7D2BDE8F081003C01401D
:1021D0005C030020044B184400230133994200F8AB
:1021E000012BFADC704700BF5800002010B4064BEA
:1021F000064902460C6818560123934023430B609E
:1022000010BCFFF73DBD00BF58000020003C01405E
:102210001F2806DC034901220B68824023EA0203DF
:102220000B607047003C014003292AD8DFE801F029
:10223000020E141F134B01229968824021EA020109
:102240009960D96821EA0202DA6070470D4B0122D9
:10225000996882401143F3E70A4B0122D968824012
:102260001143D960996821EA02029A6070470123FC
:1022700003FA00F0034B9A6802439A60DA6810434D
:10228000D8607047003C014030B50A4B53F83040ED
:102290008C4204D103EBC0056D68954205D034B97A
:1022A00043F8301003EBC0035A60002030BD6FF0DC
:1022B0000F00FBE75C030020034B002243F83020B3
:1022C00003EBC0035A6070475C03002010B51D4B40
:1022D00018680B68302B14460BD00DD85A1E042AF0
:1022E00011D8023B032B04D8DFE803F00228161EA6
:1022F00000202060002010BD402B0BD006D8342BCE
:10230000F7D0382BF5D06FF08500F4E7442B09D0D7
:10231000A82BF7E78008ECE700F0A4F84FF4A873C7
:10232000C00858434008E4E700F09CF84FF4A87355
:10233000C00858430723B0FBF3F0DAE74FF4FA4044
:10234000D7E700BF4C000020F8B5424F424C00F0E8
:102350009FF8384604F0F4F902F06CFCA3683F4A99
:10236000C3F303131578D35C47FA05F520FA03F697
:10237000AE4202D2284602F08BFC236843F480234D
:102380002360236843F480332360334B1A6892033D
:10239000FCD55A6F42F001025A675A6F9407FCD578
:1023A0009A6802F00C02082A17D11A68900707D41D
:1023B0001A6842F001021A60274A13689907FCD58F
:1023C000254B9A6822F003029A609A6812F00C0F6B
:1023D000FBD19A6822F0F0029A601F4C236823F028
:1023E00080732360636823F440336360636823F081
:1023F000706343F0E063636000F038F8236843F0F3
:102400008073236023689B01FCD5A36823F0F0034D
:10241000A360A36823F0030343F00203A3600E4C00
:10242000A36803F00C03082BFAD1AE4202D328466E
:1024300002F02EFC0A4B1F60A36823F4E05343F420
:10244000A053A360A36823F4604343F40043A36054
:102450000020F8BD007A030A0038024017B20008D5
:102460004C0000200048704700127A00054B0649D6
:102470005A681140054A0A435A605A6822F44032A9
:102480005A607047003802400080BFFF0854400087
:10249000064B1A6C42F080521A641B6C82B003F037
:1024A00080530193019B02B0704700BF0038024087
:1024B00008B5074805F085FF38B10648FFF700FE6C
:1024C0000448FFF753F9002008BD6FF01200FBE746
:1024D000F4880008D92400080A2838B5074D0446B6
:1024E00004D1AB680D215B6828469847AB68034868
:1024F0005B68E1B29847204638BD00BFF488000809
:1025000038B5036904465860084D284605F059FF60
:1025100040B16168AB680C311B682846984700EAF7
:10252000E07038BD6FF01200FBE700BFDC870008E9
:10253000F7B50C461146B1F5001F476802691D4604
:1025400024D104F00302043292000F23934043EAA3
:102550009403DAB23449023251F82220190C02EA0B
:10256000134391FAA1F2B2FA82F2D340BA689A42C6
:1025700009D12046FFF74CFE2046FFF79DFE0021C3
:102580002046FFF751FE002003B0F0BDB1F5800FEB
:1025900041D026492046FFF777FE00283ED1B5F10D
:1025A000806F34D0B5F1C06F33D0B5F1007F38D132
:1025B00002261F4ABD6892E803006B4683E80300C9
:1025C0001C488268194612689047C0B904F003039A
:1025D00004339B000F229A4042EA9402D3B29B003C
:1025E00003F1804303F59C33110C986820EA1240F4
:1025F00091FAA1F2B2FA82F2954005439D6020461D
:102600003146FFF711FE2046FFF7F0FDBBE701263C
:10261000CFE70326CDE76FF08500B5E76FF00F0039
:10262000B2E76FF01500AFE70038014055690008C8
:10263000088C0008DC8700082DE9F0471E4F04468F
:1026400000EBC1060025B44201D1002014E020684F
:10265000C30600F01F0911D4656845F02005C0F3DA
:10266000481AC0F344200F2823D857F82080B8F127
:10267000000F0DD16FF01200BDE8F087B9F1100F17
:1026800004D0B9F1110FEAD16568E8E73025E6E733
:10269000404605F096FE0028ECD04B462A460AF04C
:1026A0000F01404604F06DF9002804F10804CADA6D
:1026B000E2E76FF01500DFE730970008F8B503692F
:1026C0000C465E6823794168012B34D09A1E55422E
:1026D0005541AD026279022A9CBF354F37F812C0CE
:1026E000A27988BF4FF4005C042A27D0003B18BFB2
:1026F00001231B03E279012A0A680CBF4FF44077DB
:102700000027A642D1681CD121F4B05129430B43C4
:10271000D360136923F4405343EA0C031361436805
:102720001A68536923F440733B4353613168BDE831
:10273000F84004F0C1B94FF4C065CBE74FF48053C3
:10274000D8E701F4C0618D421FBFD16821F4C06198
:102750002943D160426811680A6902F440529445E5
:102760001FBF0A6922F4405242EA0C020A61426821
:102770001168CA6802F4805293421FBFCA6822F4EB
:1027800080521343CB6043681A68536903F4407363
:102790009F421FBF536923F440733B435361216839
:1027A0003368994203D004F087F923683360F8BD99
:1027B000AC9C00082DE9F04143681D680369D3F81B
:1027C00004800B790C46012B4979A67937D102296F
:1027D00050D9042E4BD04FF480574FF4C0620323DE
:1027E0008B4244D1002F7DD0002A14BF0322042243
:1027F000B2423CD1E37983B1012B38D13C4B9D42AD
:102800000BD0A3F54C439D4207D003F580639D4256
:1028100003D003F54C439D4229D1EB6823F40053C8
:10282000EB602146FFF74AFFEB6843F40053EB608F
:1028300094E8030088E803000020BDE8F081022B43
:1028400008D1022921D9042E11D04FF480624FF40F
:102850008057C4E702290A461FD9042E04D133B990
:102860004FF480571A46BAE763BB0329C0D06FF014
:102870008500E2E71F4A042E32F811C0F7D04FF46A
:10288000C062033B012B10D8F1E71A4A042E32F83C
:1028900011C0ECD04FF48062F3E7164A042E32F8F0
:1028A00011C016D1002BE2D11A464FF48057BCF567
:1028B000805F13D0BCF5405F12D0BCF1000F8ED109
:1028C00001238DE7033B012BD1D90022BFE7002272
:1028D000D7E7002BFBD11A461F46E8E700237FE726
:1028E00002237DE7002A14BF0222032280E700BFF3
:1028F00000100140AC9C0008F7B506694468054625
:102900002648306005F05DFD18B96FF0120003B085
:10291000F0BD3068E16883681B6898470028F6DBE3
:10292000206A01AA002104F044F80028EFDB019B93
:10293000002219791868FFF77FFE0028E7DB6E6830
:102940002B6934685F68E36823F40053E3607068C0
:1029500005F037FD0028D8D0D6E901018368DB688F
:1029600003B1984704F10C0353E8003F43F00C0314
:1029700004F10C0141E80032002AF3D1394628461F
:10298000FFF79CFE337D1BB1636943F0080363616D
:10299000E36843F40053E3600020B8E7DC870008F5
:1029A00010B54FF0E0230F499C691A6908689B69CC
:1029B0000D4902F4803234B993B903464AB90A6822
:1029C0001044C01A10BD002B08BF03460AB9A34229
:1029D000F5D90A6802440A604FF0E0221269EEE776
:1029E0000446F3E7900400208C0400200A4B1022D8
:1029F00083F82320094B44F2A0121A60084B0020F0
:102A000018604FF0E02344F29F125A6198611A69EE
:102A100042F007021A61704700ED00E090040020C8
:102A20008C04002010B5FFF7BBFF104B1049D3E911
:102A300000420868001942F10002C3E900020D4A91
:102A400000230B60D2E9004144F2A013001BB0FB4D
:102A5000F3F043431B1941F10001C2E9003102F0D8
:102A6000B3FFBDE81040FEF70FBF00BF900000208D
:102A70008C040020880000202DE9F041DFF8DC8084
:102A800099B1421C0BD14FF0E022136923F00103EE
:102A900013614FF07F43C8F80030BDE8F081D8F8EB
:102AA0000060012807DC00270BE0431CD8F8006019
:102AB000F7D140F2E53040F2E6339842A8BF18461D
:102AC000471EEFF31185102383F31288BFF36F8F36
:102AD000FFF766FF224C4FF0E0239969D4E9002309
:102AE000801843F10003C4E900031E4B00221A6062
:102AF0001D4B1A68831A2ED444F2A01C0CFB07331A
:102B000003F583431F33B3FBFCF7131A0CFB0733A6
:102B100040F21A42934238BF1346144A934228BFE8
:102B200013464FF0E022C8F80030013B9069536132
:102B3000002393618142A1EB0003D4E9001238BF66
:102B40009B195B1842F10002C4E9003285F3118839
:102B5000BFF36F8FA1E740F21A43E2E79004002031
:102B6000900000208C040020880000202094FF00AA
:102B700038B5EFF31185102383F31288BFF36F8FFD
:102B8000084B1C68084B1B68E41AFFF709FF85F324
:102B90001188BFF36F8F44F2A0132044B0FBF3F011
:102BA00038BD00BF900000208800002012289ABF86
:102BB000024B53F820000248704700BF30980008CD
:102BC000AB9E0008014B196805F03DBD109600084A
:102BD000122803460DD809280DD8022808D901204B
:102BE00000FA03F212F4127F20D008600020704730
:102BF00018BB01207047A0F10A03082BF9D801A2E5
:102C000052F823F0372C0008432C0008292C000828
:102C1000432C00083B2C0008F32B00083B2C000839
:102C2000F32B00083F2C00081020DEE712F4887F09
:102C300007D1072BDED10220D7E70420D5E70120FA
:102C4000D3E70820D1E700BF2DE9F04706460F463D
:102C50000068102104F049F8E8B90020BDE8F087C9
:102C6000013304EB830254F823401444042120462A
:102C700004F03BF8002857D022582318134410338F
:102C800053F8041C3B60B2698A4207D0284804F01C
:102C9000D4FF0120E2E7DFF89C800025D6F800A0F1
:102CA0001021504604F021F800283FD05AF8003097
:102CB0000AEB0002D118D3589D42CED2013501EB68
:102CC000850951F8253099440421484604F00DF84F
:102CD0000028E3D009EB000259F80030D458D0188E
:102CE000172C2246414628BF1722043005F08DFCE0
:102CF0000028D3D1172CD1D10C21504603F0F5FF79
:102D0000044620B15AF800400AEB00031C44062197
:102D1000484603F0EAFF034608B159F8003022683C
:102D20009A429DD803F04FFCC368FFDE0368FCE7BE
:102D3000299F0008F19F0008F8B5044600680F4677
:102D400004F002F8056860680368AD009B6804221F
:102D500029469847206158BB1748294604F06DFF63
:102D60000120F8BD236943F82650206803F0ECFFEA
:102D7000314604F01EF803F0DDFF036801361D4400
:102D8000206803F0E1FF03689E42EBD3C4E90555D8
:102D90006068E7613D44E56018235D4303680422F1
:102DA0009B6829469847A0600028D5D00020D8E726
:102DB00000263546E4E700BF749F00082DE9F3477D
:102DC00008460C46164604F064FA4FF00008054623
:102DD0004FF0FF37454501D100202FE00A21204662
:102DE00003F083FF80B3225821188B188A5842457C
:102DF00001D803F0E8FB08F1010803EB880953F858
:102E000028304FF0000A99441421484603F0DEFFB1
:102E10000028DFD003689A45DCD2514603F0BFFF9B
:102E20000C2301A903FB0060019703F041FF28B9BF
:102E3000019931B1054804F000FF012002B0BDE85E
:102E4000F0870AF1010ADFE70368FFDEB59F00089B
:102E50002DE9F04F824695B090461C4601F1FF39AE
:102E6000002598F8003029460AEB050773B34D4555
:102E70002CDA252B08F1010240F00E8198F8013080
:102E8000662B58D009D8632B00F00981642B19D028
:102E9000252B00F0FF809046E3E7752B2DD0782B93
:102EA00034D0732BF7D154F8043B3D46013B8945A0
:102EB00005DD13F8012F0231002A40F0F580A5EB63
:102EC0000A0517E0A9EB05030A2B05DC681C0023A3
:102ED0003B7015B0BDE8F08F54F8040B394600285C
:102EE000BEBF2D2301F8013B40420A2204F0B0F995
:102EF000C01B054408F10202CDE7A9EB05030A2B2C
:102F0000E4DD54F8040B0A223946EFE7A9EB050289
:102F1000092A05F10100DADD30223A7002350AF89B
:102F200000300AEB050654F8040B1022314604F079
:102F30008FF9801BDDE7A9EB0500FDF799FE5C49E1
:102F4000FEF788F80028C1D1073424F00704F4E81C
:102F5000020107F12F030293FDF780FDC0F3C75371
:102F600003937F3B002801933B46BCBF2D2203F80F
:102F7000012B00221A70019A802AC0F3160E0FD17D
:102F800007F12F02D11ABEF1000F07D1494A1846A6
:102F900004F048F90646F61B3544ABE7464AF6E727
:102FA000464A04AE02F1080B10685168B446ACE81A
:102FB000030008325A456646F6D110681279CCF8FB
:102FC00000008CF8042004AE7046002216F9011BA4
:102FD00001322EFA01F10D2A0844F7D131221A707C
:102FE0002E225A7000229A70029A9E1CA2EB060BA7
:102FF000BBF1070FCFDD4FF03032C3F80320A3F849
:10300000072008A90A2204F023F9594608AA3046E5
:1030100004F008F9831B3021D3F1070E017037D17A
:103020000346184613F8012D302A01D19E42F8D3E9
:1030300000230370029B224A191A04F0F3F8029B42
:103040001E1A019B002BBFBF2D238DF82030039B40
:10305000C3F17F03B8BF01938346B4BF0DF12101D3
:1030600008A90A22019804F0F3F808AA3146584644
:103070008EE712F801CD02F80EC01170A0EB020C21
:103080006345F6DC23EAE373C3F107031844C7E79B
:103090000246F3E708F1020201353B70FBE654F803
:1030A000043B3B70013525E705F8012BFFE600BF27
:1030B0000000604109A000080DA0000815A000084C
:1030C00011A000084369202B01D180697047A12B12
:1030D0009ABF024A52F8230001487047B898000886
:1030E00061AC00082DE9F74F4369019304460025C0
:1030F0004FF02C0AE3691B689D4203D3019B636177
:10310000002024E0A0686561294604F0CFF84FEA6A
:10311000C50B80460026464501D10135EAE7236903
:1031200053F80B100AFB0611D1F82890D9F80820A3
:1031300082B160689047074660B14846FFF7C2FF1A
:103140003B4601463246064804F077FD012003B0B5
:10315000BDE8F08F3146E06804F086FB0136DAE71F
:1031600023A000082DE9F04FC2694369416112684C
:1031700085B0914281460D46019307D3284804F05B
:103180005CFD0124204605B0BDE8F08F806804F0A6
:103190008DF800260746ED004FF02C0AB346BE42DC
:1031A00004D1019BC9F814300024EBE7D9F81020B2
:1031B00054590AFB0644D4F828804046FFF782FFA2
:1031C000D9F804200146506BCDE902B018B102686D
:1031D000926890470290D8F80C200AB9FEF77CFF5D
:1031E0002146D9F8040090470446D9F80C0002683B
:1031F00052699047012C0CD14046FFF763FF2346EC
:1032000001463246074804F018FD02A804F006F90A
:10321000B8E7002CF9D102A804F000F90136BEE7A6
:1032200059A000088BA0000810B504461046C4E958
:103230000203074A0023C4E90433029BA361C4E9E3
:10324000002110B103F080FDE061204610BD00BFF9
:1032500084980008A1289ABF024B53F82000024826
:10326000704700BFB898000861AC000870B500F165
:10327000A00604460D463046002104F0DCFC0A4B53
:10328000E3610A4BA3650A4BE3650A4BA3640A4B4F
:1032900023630A4B23640A4BE36400236661E563FE
:1032A00084F8913070BD00BF1D7C0008E7750008F0
:1032B000EF750008D7750008F7750008CF7500088E
:1032C000DF75000838B5054600680C4604F0C9F9FA
:1032D000A042024605D80548214604F0AEFC002075
:1032E00038BDD5F8983053F82400F9E73DA7000819
:1032F0002DE9F04F06468BB04FF0000B06F1700041
:1033000004F086F8584501DC002273E03568284651
:1033100003F01AFD594603F04CFD814608B9FEF74B
:10332000DBFE0621284603F0E0FC044610B12C58D1
:103330002B181C44F06E04F0BAFA0390484603F0D0
:10334000A8FF4FEACB03049000934FF00008049BC2
:10335000984502D10BF1010BD0E70A21484603F052
:10336000C4FC002800F0C28059F8002009EB0001DD
:103370008B188A58904501D303F025F908F101080C
:1033800003EB880553F828301D440421284603F038
:10339000ACFC50B155F800A02368534507D85448F9
:1033A000514604F04AFC012224E08246F4E70AF187
:1033B000010204EB820354F8222000991344D6F84A
:1033C000802001932C275258716807FB08F72C3F87
:1033D0003A441846283200F0C5FC019B70B10090B9
:1033E000184604F098FEFFF735FF0146414804F007
:1033F00024FC009A10460BB0BDE8F08FD6F8803060
:1034000000995B583B449B6A13B93B485146C8E757
:10341000D3F814A00990BAF1200F4FF00E012846FE
:1034200046D103F062FC00283BD100230193062122
:103430002846079303F0CAFC03F055FF08210590C6
:10344000284603F0C3FC03F04EFFD6F88020009B13
:103450000690D358029303EB070A28220021504616
:1034600005F0CBF8029B059ADA51069BCAF80430A6
:10347000019B099ACAF81830079BCAF81420CAF8A9
:103480001C301421284603F0A1FC00283FF45FAF54
:103490000368002B3FF45BAF03F025FFCAF8080078
:1034A00055E72B582A18D1180431D3580191BEE79B
:1034B00003F01BFC28B15046FFF7CCFE01460F4835
:1034C0006FE77068036851469B68984728B9504673
:1034D000FFF7C0FE01460A4863E7039A09AB294695
:1034E00004F04AFC024600289FD083E70368FFDE11
:1034F00068A7000892A70008BFA70008E0A7000877
:1035000026A800082DE9F04F05460168C06E87B077
:1035100000F054FA014650B9744804F08EFB0123C0
:1035200085F891300124204607B0BDE8F08F05F101
:103530007007384603F07CFF2846FFF7D9FE0446A3
:103540000028F0D105F1A0060146304604F073FBD7
:10355000384603F0D2FE04460028E4D1012130466B
:1035600004F069FB3846FFF7BDFD04460028DAD1B8
:103570000221304604F05FFBD5F880202968E86E10
:1035800005F1940300F0F6F904460028CBD1D5F8F4
:103590009410304604F040FBEF6E28683B68D3F887
:1035A0001C8004F05EF881003846C047C5F89800DA
:1035B000002835D1286804F054F881004C4804F004
:1035C0003CFBAFE71B68D5F880200393404604928C
:1035D00003F0BAFB002103F0ECFB062103F0F6FB3D
:1035E0000368049A9C4201D302F0EDFF04F1010943
:1035F000D5F89830CDF800B00493414650F8293002
:103600003846039FB8474FEA840A049B43F80A00F0
:10361000D5F8983053F80A30EBB936482146CEE752
:10362000A346D5F80080404604F01BF8EF6EA04298
:103630003B68C7D84046DC6904F01EF88100384674
:10364000A047C5F89C00002837D1286804F014F87A
:1036500081002948B3E74C46E3E7D5F86CA0D5F8DC
:103660008020DAF8003005921B680393384603F097
:103670006BFB002103F09DFB082103F0A7FB03680F
:103680009C42B1D204F10108D5F89C30CDF800B0CD
:103690000493394650F82830059A039F5046B8479E
:1036A0004FEA8409049B43F80900D5F89C3053F88D
:1036B0000930CBB91148214681E70024A3462F6881
:1036C000384603F0D9FFA042C7D8284603F0F2FFDE
:1036D000044600287FF427AF012385F890300321AA
:1036E000304604F0A8FA1EE74446E8E743A800087D
:1036F00066A80008AFA80008D4A800081EA9000802
:1037000010B590F89130044623B10A4804F095FAB8
:10371000012010BD90F8903033B104F17000002109
:10372000BDE81040FFF71EBDFFF7ECFE0028F4D007
:10373000EFE700BF44A900082DE9F04F85B08046AF
:103740000F9D8A4693461C460DB9FEF7C5FC4022E4
:103750000021284604F051FF204604F031F82946A4
:1037600004F0FEFA0746002859D1204603F0C5FAB6
:103770000E9985F82D00204604F02AF8002814BF81
:103780000123022368602B7503AA05F11801204666
:1037900003F05BFA0746002841D10421204603F0DC
:1037A000A4FA18B322182058104403F09CFDA86016
:1037B0000C21204603F099FA88B3235826181E449A
:1037C000304603F0E9FF044648B303683BB3304694
:1037D00003F0ECFF18B303680BB36368EB6030468B
:1037E00003F0E4FF03681BB902F0EDFE3C48DEE79E
:1037F00043682B61304603F0CFFFD0F80090BBF157
:10380000000F10D0DAF8003004229B680C215046DB
:1038100098470446E8B9334804F00FFA01273846C0
:1038200005B0BDE8F08FD8F8003004229B680C2169
:103830004046984704460028EDD0D8F80030484666
:10384000D3F808A003F0EDF9042201464046D04722
:103850000AE0DAF800304846D3F8088003F0E1F9CE
:10386000042201465046C047606008B91E48D3E7AD
:10387000304603F091FF03F037FD63682060C3F822
:10388000009063684FF0000ACA450BDB10213046F8
:1038900003F02BFA00B13058A060012385F83030D6
:1038A0006C63BCE73046019303F080FFD0F800B0B2
:1038B0008046304603F070FF0268019B93450AD1B1
:1038C000D34591D908EBCA08D8F8042043F8042F4F
:1038D0000AF1010AD8E7BBF1000FF5D184E700BF78
:1038E000A89B000871A900089FA90008F8B5164612
:1038F0000023C2E9003346F8083F0F461446054648
:1039000003F05EFF314604F02BFA064678B93946DB
:10391000284603F05DFF04212060284603F0E5F906
:1039200038B12A182858104403F0DDFC6060304696
:10393000F8BD0148FAE700BFA89B000838B50D465E
:10394000044608B9FEF7C8FB0029FBD0036804222F
:103950005B6B2421984750B1054B0561C0E90034E9
:103960000023C0E90633043484600375036238BD64
:103970004C9B00082DE9F0411D46037D04460E4690
:1039800017462BB90C4804F058F90120BDE8F08126
:10399000036882691B6C294698470028F6D1236882
:1039A0003A46D3F83C802B6831462046C047002871
:1039B000ECD12075EAE700BFCDA90008F8B50446B0
:1039C0000E4609B9FEF788FB037D2BB11C4804F0B5
:1039D00034F900252846F8BD012303758068036883
:1039E00004229B680821984718B1A368154AC0E9CA
:1039F0000023E060204603F024FF0028E9D1A568F9
:103A00002B6830469F6803F09FF90168042228461E
:103A1000C900B847054608B90B48D8E723680246ED
:103A2000DB6A3146204698470028D2D123682A46CF
:103A30009B6A3146204698470028CBD0C9E700BF93
:103A400018AA0008989B00086DAA00082DE9F84301
:103A50000446894690461F4603F002FFA6690C23E0
:103A60005E430546811900228D4208D10B2A0CD9EC
:103A70000C480C2104F0E1F80120BDE8F8836B68E4
:103A8000013308BF01320C35EEE74FF0FF3340F849
:103A90000690C5E90138A3693B60A3690133A361BE
:103AA0000020EAE79BAA00082DE9F34180460F4673
:103AB0001E4614460025384603F03CF903689D4233
:103AC00001D300201DE0294603F0F3FE03F015F9B1
:103AD000D0B11EB156F82530013315D101A92046C9
:103AE00003F0E6F868B9D8F80800019903681022D5
:103AF0009B689847206038B90548019904F09DF803
:103B0000012002B0BDE8F08101350C34D3E700BFDD
:103B1000D1AA00082DE9F84307460E4615461ABB00
:103B2000FEF7DAFA214603F044F90028F8D003F052
:103B3000B0FBBB681A6808FB00F1D2F80890184681
:103B40000422C84728B90A4804F077F80120BDE8E4
:103B5000F88345F834000134304603F0F5F8036883
:103B60009C42DFD30020F2E700244FF02C08F3E75B
:103B7000FFAA00082DE9F347DDF82890074608461C
:103B8000884616461D4603F0DFF8494603F011F952
:103B900008B9FEF7A1FA3B6838465B6B98470446C4
:103BA00038B9124804F049F80024204602B0BDE8B4
:103BB000F08700223B68CDE900924146D3F838A057
:103BC00002462B463846D04708B10948EAE7002E9E
:103BD000EBD006EBC9060C235D4373685B59636049
:103BE00073682B445B68A360DFE700BF35AB000858
:103BF0006BAB00082DE9F347DDF82890074608462F
:103C0000884616461D4603F09FF8494603F0D1F852
:103C100008B9FEF761FA7868036804229B684021BE
:103C2000984701223B68CDE900920446D3F838A0BA
:103C300002462B4641463846D04738B10A4803F081
:103C4000FCFF0024204602B0BDE8F087002EF9D02A
:103C500006EBC9060C235D4373685B5963607368A8
:103C60002B445B68A360EDE7B5AB00082DE9F74F87
:103C700081460C460092002A4AD1FEF72DFA3146C1
:103C800003F097F880460028F7D003F053F8D0F8F7
:103C900000B0D9F8080003680AFB0BF59B68042202
:103CA00029469847074688BB1B48294603F0C5FFAD
:103CB000012003B0BDE8F08F404603F03BF82946F1
:103CC00003F0F7FD0C210190204603F00EF858B1E7
:103CD00021582218114401980AFB0572FFF706FECD
:103CE00020B10E482946E1E70146F4E701355D457C
:103CF000E2D1009B1A1D42F836700136204603F0CF
:103D000023F803689E42BAD30020D2E70025EEE7ED
:103D100000264FF00C0AF1E7F9AB000840AC0008B0
:103D200030B5054DC0E902320023C0E90051C0E9B9
:103D30000433836130BD00BFB49B000800B5C1B03F
:103D400002460B4668464FF48071FFF781F86846DB
:103D5000FEF738FF0248FEF735FF41B05DF804FB7F
:103D60005FAC00082DE9F0410024146007460E46C0
:103D7000904604F0D0F9A128054606DD0146194811
:103D800003F05BFF0120BDE8F08120280FD03368ED
:103D900001461B6830469847C8F8000000BB002D5C
:103DA000AABF114B114953F825101148E8E73B68A9
:103DB000FB1A1A88062A0FD9DB88F91863B1FB5859
:103DC000326804335268194430469047C8F80000FE
:103DD000B0FA80F04009D6E7064803F02EFFD1E79D
:103DE0002046D0E762AC0008B898000861AC000833
:103DF00084AC0008ABAC0008F8B504460F468068F8
:103E0000194615461E4602F00FFF2269A3699A4221
:103E100001D1B84204D00C4803F00FFF0120F8BDD7
:103E2000A068314602F000FF6269121AAA4205D268
:103E30000648AB1A294603F000FFEFE7284420614B
:103E4000A0610020EBE700BFE2AC000850AD000825
:103E500038B504460D468069114602F0E5FE6269F8
:103E6000121AAA4206D20848AB1A294603F0E5FE08
:103E7000002038BDE3694340E361236A0544013310
:103E8000A5612362F5E700BF92AD000808B5D0E94F
:103E9000072151EA020307D0B2FA82F2034852091D
:103EA00003F0CBFE002008BD0120FCE7DBAD0008DD
:103EB00010B503681B690446984720B9044803F00D
:103EC000BCFE012010BD2369A3610020FAE700BFFA
:103ED0001DAE000838B5044640690D46401B11462A
:103EE00002F0A8FE2369834207D91B1AEA1A044884
:103EF000294603F0A2FE002038BD6061FCE700BF48
:103F000062AE000810B5064C0460C0E90321C0E9A8
:103F1000052144340022C0E90141C0E9072210BD57
:103F2000F09B000800B50A468BB0014608B9FEF7C1
:103F3000D3F801A803F00DFF042224210DEB0200A9
:103F4000FFF7C8FF88B10A4B036044334360039B0B
:103F50008360049BC360059B0361069B4361079BD1
:103F60008361089BC361099B03620BB05DF804FB8E
:103F7000F09B0008044B1A681AB9044A04491160FE
:103F80001A601868704700BF94040020E50C0020F8
:103F90004C9C000870B50D46D0E901148C4204DB3E
:103FA0000B4803F04AFE012070BDC168260101EBF9
:103FB00004148D51C4E902234FF0FF33636083681A
:103FC00001338360012380F828300020ECE700BF34
:103FD000ABAE0008014B0360704700BF609C000857
:103FE0002DE9F0439BB0054603F061FF544E0024D9
:103FF000A968A14211DC00231F465026994230DCFB
:1040000000244FF0500850222E2105A804F0F5FAA4
:104010000023D5F808909C4659E0092C15DC04F1E2
:104020003001C9B2EB6803EB04122001D768029794
:10403000926801926A6A52F8242000921B58224624
:10404000304603F0FAFD0134D2E7232C02DC04F100
:104050005701E6E73D2C02DC04F11D01E1E72A21CE
:10406000E0E7E8686A6A4FEA031C00EB031452F8C1
:10407000232050F80C0002449642B8BF1646E2686E
:104080009742B8BF17460133B8E7E86800EB031161
:104090004FEA031E8A68A24218DCCA68A24215DBF6
:1040A0006A6A52F823104A1C10D050F80E2008FB00
:1040B00001F09444114405AA90FBF6F002EB000EC7
:1040C00008FB01F191FBF6F188421DDB01339945B4
:1040D000DBDC00238DF864301A491B4B1B48092C8C
:1040E000C8BF19460CF2FF33002BB8BF0CF2FE73A9
:1040F0009B120093224605AB013403F09EFDA742BC
:1041000081DA1BB0BDE8F0839EF800202E2A14D17E
:10411000092B06DC03F13002D2B20EF8012B01307C
:10412000D2E7232B02DC03F15702F5E73D2B02DC3B
:1041300003F11D02F0E72A22EFE72122EDE700BF9D
:10414000C8AE0008BDA7000861AC000803AF0008B6
:1041500070B50C460546164603F0A9FE002C02DB9E
:10416000AB68A34206DC0648AA68214603F065FD59
:10417000012070BD6B6A53F8243033600020F8E7EB
:1041800012AF000808B5131E17DD23EAE373984049
:10419000814202D1B1F1004F23D0002380FB010105
:1041A000002914DB10F1804041F10001C00F40EA0A
:1041B00041001F2B18DD02F006FA8842C3F100030C
:1041C000ECD1B0F1004FE9D16FF00040F1E70D4ABA
:1041D000801861F100010029E8DA6FF000428018D0
:1041E000E2E76FF00040002301229A40013A02EA20
:1041F0000001521002EBD07218419142C8BF013049
:1042000008BD00BF010000C0002A70B501DA02F04D
:10421000DAF903F11F04262CF9D801F50044B4F5AE
:10422000803FF4D2174CA242DABF02F500421214CA
:1042300047F6FF72D4175143C3F10E0500FB04117A
:10424000A2FB00200144A5F120040120C5F12006B5
:1042500020FA06F600FA04F4A8403443801841EB33
:104260000401C3F10F041133B4F1200220FA04F069
:1042700001FA03F340EA03005CBF41FA02F2104383
:1042800070BD00BFFFFFFE7F2DE9F84316461C46B8
:104290000022002380468946FCF7AEFB054620B18C
:1042A000002333602360BDE8F88322464046494638
:1042B00001F0E4FE104B0022FCF736F901F098FE05
:1042C000FCF76EFF4FF00042824275EB0107034698
:1042D00001DAFDF701FFA94208BF904202BF23683F
:1042E00001332360226808BF4FF080431F32BCBFF8
:1042F000002323603360D6E70000E04173B5044635
:1043000018461646FCF7BCFDFCF7B6F801F070FE47
:10431000FCF7A4FB4FF04F410546FCF7AFFE70B130
:104320004FF09E412846FCF79FFE40B12846FCF71F
:10433000B9FE069B30441860002002B070BD054BEA
:10434000009320466569044A04494FF4AF73A847B7
:104350000120F2E7A7AF00083BAF000890AF0008CC
:1043600073B504460846D168C0681E46FCF7D4FC05
:1043700000210546FCF782FE58B90F4B00932046FA
:1043800065690E4A0E494FF4A873A847012002B090
:1043900070BD2846FCF770F80446F0680D46FCF73F
:1043A0006BF80B46024629462046FCF7E7F9069BC8
:1043B000C3E900010020EAE7CDAF00083BAF0008E9
:1043C00090AF00082DE9FF471F461378032B0446E2
:1043D0000FD0092B2AD0072B2CD0354B00934469E2
:1043E000344A35494FF4CB73A047012004B0BDE8EF
:1043F000F087FF254FF000080129D2F80C90D2F881
:1044000010A01CD103AB009352460023494620461E
:10441000FFF774FF0028E9D1039B4345ACBF3B6025
:10442000C7F800800C9B00201D60DFE77F256FF040
:104430007F08E1E7DFF8848047F6FF75DCE70329B2
:104440001DD103AE00960023524649462046FFF791
:1044500055FF0028CAD1039B4345ACBF3B60C7F85A
:104460000080174B0096524649462046FFF746FF0C
:104470000028BBD1039B9D42A8BF1D46D2E702295D
:1044800013D103AE0F4B0096524649462046FFF724
:1044900035FF0028AAD1039B4345ACBF3B60C7F85A
:1044A000008000964FF07E53DDE7C7F80080B9E743
:1044B00008B000083BAF000890AF00080080FFFF85
:1044C0000000C040000080BF08B503461046112B15
:1044D00030D8DFE803F00D0915191D212311251B24
:1044E0000F271F292B17132D0A230B70002008BD3F
:1044F0000123FAE70B23F8E70723F6E71123F4E794
:104500000223F2E71023F0E70323EEE70923ECE7A9
:104510000423EAE70D23E8E70523E6E70623E4E7BB
:104520000823E2E70C23E0E70E23DEE70F23DCE7B6
:104530001223DAE700220A7002491A4603F0CFFD7F
:104540000120D4E70EB000082DE9F74F17460546C5
:1045500089469B4603F0A3FD3B6801221B680421AA
:1045600038469847044670B9284B019340F292535D
:104570000093274A274B4946484603F0BEFD0120D9
:1045800003B0BDE8F08F4FF00008C0F80080284667
:1045900002F0BEFB082882462BD1284602F0C0FB61
:1045A000054630B34246042103F090FDC6B2731EA7
:1045B000042B88BF4646424651462670284603F0E3
:1045C0007CFDB0EB080018BF0120A07042460A2114
:1045D000284603F072FDB0EB080018BF0120E07020
:1045E00042460621284603F071FD10B1012804D18E
:1045F0006070CBF800400020C2E70749484603F04E
:104600006EFD2146384603F055FDB8E793B000082B
:1046100090AF000832B00008ADB000082DE9F04FAF
:10462000D1F810A0C4688DB005460F46BAF1000F4E
:1046300001D1FDF751FDD1F814B0BBF1000FF8D056
:104640002368544A9B69126820469847804660B99F
:10465000514B00936C692F23504A51492846A0477B
:10466000012528460DB0BDE8F08F23684D4A9B69AF
:104670001268394620469847064620B94A4B0093AF
:104680006C693223E8E72368484A9B691268394617
:10469000204698472368464ADB69126839468146B6
:1046A00020469847074620B9424B00936C69372350
:1046B000D2E798F800003B78834212D06E69FEF78B
:1046C00075FA04463878FEF771FA3B4B01933B4B81
:1046D0000093CDE90240314A394938232846B04792
:1046E000BEE7012833780DD1012B2BD0FEF75EFAFF
:1046F00004463078FEF75AFA21460246314803F064
:104700009CFAADE7092817D1092B1BD0122BEDD14C
:10471000B16851F8042B0592062A8ADC920006A89B
:1047200003F05DFF05A802F06FFA2B6C01460AF159
:1047300020022846984705E0072801D1092BD4E735
:10474000122BE5D098F800209BF800102846CDE900
:10475000027ACDE90069434603F0ABFD0546002827
:104760007FF47FAF236841465B6A20469847236801
:1047700031465B6A20469847B9F1000F04D02368A0
:1047800049465B6A20469847236839465B6A20465B
:10479000984766E7909C000836B10008D7B000083B
:1047A00090AF00088C9C000847B10008889C000866
:1047B000849C000859B1000885B1000892B1000836
:1047C0006BB100089EB100082DE9F04FD1F814A09C
:1047D000ADF52D7D80468946BAF1000F01D1FDF778
:1047E0007BFC954B1A6803F0C6FD944B49461A684A
:1047F0000546404603F0BFFD914B49461A680746FF
:10480000404603F0B8FD8F4B49461A6804464046BF
:1048100003F0B3FDD9F810900646B9F1000FDED0D1
:10482000287A072800F01081092800F098800128D4
:1048300040F0C5819AF8001084A800F0DFF92946FD
:1048400014A803F0A8FD2B680A9339461BA803F0AF
:10485000A2FD002FC3D03B680993214622A803F094
:104860009AFD04B12468314629A803F094FD002E76
:10487000B5D03368299E0C93013E8B9B069331463D
:104880008C9B079329A803F06AFC1B9D0B90A91E23
:104890001BA802F0ADF93146074629A802F0A8F995
:1048A000874206469BD1691E1BA802F0A1F900258C
:1048B00004900595AA460B9B534540F391800C9BB1
:1048C000059A03EB820308930A9B4FF0000903EB60
:1048D00085030D93C8462EE052F8041B53F8040BD1
:1048E0000F920E93FCF718FA01463846FCF70CF9C4
:1048F000DDE90E3207460BF1010B04995945EBDC5B
:104900001CB354F828103846FCF7FEF80746014659
:104910000698FCF7BDFB00B1069F07983946FCF7E7
:1049200099FB00B1079F089B43F8047B0893049B05
:1049300008F101089944B04509DA099B4FF0000BD2
:1049400003EB890200270D9BD7E70021DBE7059BDE
:1049500033440593049B0AF1010A1D44ABE7387AFE
:10496000092842D0122840F02181D8F84430D9F8E3
:1049700020104046984739468046A2A8D7F800A0A4
:1049800003F009FDA2A802F03FF942460146504655
:1049900003F06AFB49468EA803F07AFC294630A84A
:1049A00003F0F9FC394637A8D5F8009003F0F3FC82
:1049B00021463EA803F0EFFC04B1246845AD314622
:1049C000284603F0E8FC002E3FF409AF336800945A
:1049D000CDE9015337AA434649468EA803F0D8FBD8
:1049E00000200DF52D7DBDE8F08F494698A803F015
:1049F0004FFC29464CA803F0CEFC394653A8D5F805
:104A0000008003F0C8FC21465AA83F6803F0C3FCAD
:104A100004B1246861AD3146284603F0BCFC002E89
:104A20003FF4DDAE33680094CDE9015353AA3B4611
:104A3000414698A8D2E700BF909C00088C9C0008D3
:104A4000889C0008849C0008387A092840F0AE80D1
:104A50004946A2A803F01CFC294668A803F09BFC69
:104A60002B68099339466FA803F095FC3B680A93BD
:104A7000214676A803F08FFC04B1246831467DA856
:104A800003F089FC002E3FF4AAAE33681193A29B79
:104A90000B93A39B0C93A49B0D93A59B6F9E0E93CE
:104AA000A69B0F93A79B0693012EA89B07937FF7C6
:104AB00096AE7D9D002D7FF792AEDDE906329342E2
:104AC0003FF78DAE013D29467DA803F048FB2946FE
:104AD00010907DA802F08CF8B11E83466FA802F0FA
:104AE00087F883453FF77BAE711E6FA802F080F810
:104AF00000260746B146B246109B53457FF770AF7C
:104B0000119B03EB49030593099B4FF0000803EB4E
:104B100046031293454639E03EF9023B1946089B8D
:104B200013F901CB08930C9B634413930B9B8C46A6
:104B30009C441399634659430B460818049941EB6A
:104B4000E373049301329742E6DC54B154F83530F4
:104B500004EBC502C31852681846049B43EB0203DA
:104B60000493DDE90E230499FFF74EFB0D9B1844D7
:104B7000069B9842B8BF1846079B9842A8BF1846A4
:104B8000059B23F8020B01350593B844AB4508DDBE
:104B90000A9BDDF848E00022434408931046049243
:104BA000D1E70AF1010AD9443E44A5E7FDF7FEFF2B
:104BB0002A7A0146054803F040F8012011E7FDF785
:104BC000F5FF2A7A01460248F5E700BFD2B1000896
:104BD000F5B1000813B50023CDE90033044A054BB5
:104BE0000549044603F0A0FB204602B010BD00BFFB
:104BF0001D460008C94700084D810008012909D059
:104C0000032909D002290AD06FF40002064BC261C1
:104C1000036270470022F9E7044B0022F7E7044AD9
:104C20004FF07E53F3E700BFFFFF7F7F0000C040DF
:104C3000000080BF08B513498B6803F00C03042BF8
:104C40001CD0082B1CD14A684B68496813F48003B8
:104C500014BF0D480D48C1F3881118BF002302F09E
:104C60003F02A1FB0001FCF743FA064B5B68C3F36C
:104C7000014301335B00B0FBF3F008BD0248FCE7E1
:104C80000248FAE70038024000127A000024F400DB
:104C9000002800F0CC80674B1A6802F44042B2F55D
:104CA000404F51D102F10F6202F58C52904211D95E
:104CB0001A6802F44042B2F5004F51D105235D4A13
:104CC000126802F44042B2F5804F74D1012B38BF14
:104CD000012370E0584A904208D91A6802F4404211
:104CE000B2F5004F40F095800423E8E7534988422D
:104CF00019D8534A90421ED8524A904252D91B6842
:104D000003F44043B3F5004F4FF001033AD0494A52
:104D1000126802F44042B2F5804F4CD18842D5D897
:104D2000474A90423CE01A6802F44042B2F5004F14
:104D300053D00323EBE71A681B6803F44043B3F531
:104D4000804F4FF00203C0E71A6802F44042B2F508
:104D5000004F4DD102F10F6202F5A342904207D9F4
:104D60001B6803F44043B3F5804F4FF00503ACE7F5
:104D7000314A90424DD8314A90422ED8304A904222
:104D8000DAD800232F4A904213D92A4B1B6803F428
:104D90004043B3F5804F46D1294B98424FF0010371
:104DA00033D993E71A6802F44042B2F5004F1CD1A0
:104DB0000023204A126824490A6822F00F021A438D
:104DC0000A600A6802F00F0293421CBF0A6802F0F0
:104DD0000F02981A18BF012070471B6803F4404364
:104DE000B3F5804F4FF003036FE71B680023E2E742
:104DF0001B6803F44043B3F5804FF7D10F4B984243
:104E00000FD80F4B984210D800230E4A9042D2D9A7
:104E10005CE71B6803F44043B3F5804F4FF0040395
:104E200053E7032352E70123C5E70223C3E7012029
:104E3000704700BF00700040000E2707804A5D05E4
:104E40000087930380C3C901003C024038B5EFF3EB
:104E50001185102383F31288BFF36F8F064B9C6874
:104E600003F0C2FA85F31188BFF36F8F2046BDE8C7
:104E70003840FCF789BE00BF9804002038B5094BC4
:104E800053F82040013053F82050A54200D838BDD7
:104E9000636823B1204603F0AAFA0834F5E72368D3
:104EA0009847FAE7949C000870B52B4B2B4C2C4D7F
:104EB000012286B003201A70FFF7E0FF00F004FE25
:104EC00001F061F90420FFF7D9FF2646AE4204F154
:104ED000300410D300F0CAFB204C224EAC4226D343
:104EE00000F0D8FBFCF72AFB1F4A137B23F00103D9
:104EF000137306B070BD54F80C3C059354F8103C85
:104F0000049354F8143C039354F8183C029354F857
:104F10001C3C019354F8203C009354E90A2354E9C3
:104F20000C0100F091F954F8303C5E65CDE7D4E90E
:104F30000A23B3F1FF3F08BFB2F1FF3F05D052EAA9
:104F40000301206803D103F081FA3034C6E731460B
:104F5000183000F0BFFCF8E7E90C0020F48B0008E3
:104F6000F48B000825850008180100200648074A30
:104F700008B5121A002103F052FA0548054A00212B
:104F8000121A03F04CFA08BD88000020F00C002033
:104F9000000000100000001070B5002386B0012250
:104FA000CDE90423134E144D01930F22CDE90232B3
:104FB0001249142303FB005506EBC01604464FF4B8
:104FC000C07000FB04110E4B00954FF4A0723046E8
:104FD00000F03AF9737B0B4AEE6023F0040373731D
:104FE0004FF4046304FB033313442C746B6006B06A
:104FF00070BD00BF980000209804002040150020DC
:1050000027840008000D0020BFB50020FFF736FF01
:105010002B4B83F308882B4D2B4E6B692B4F43F49E
:1050200000736B610024F02385F82230EC772C7636
:105030006C76AC7685F820406B6A43F4E0236B62B3
:10504000FCF77AFDFCF7BAFE4FF0FF33AB62EB6280
:10505000FCF77AFFFCF7D6FE1D4BB36040F201125D
:105060009A81C3E91844DC6603F0AAF90120FFF72E
:1050700005FF0220174DFFF701FF00F02BFB164B39
:1050800075610593012315490094CDE903434FF45D
:1050900000623B46CDE90144284600F0D5F86A7B22
:1050A000064622F0040228466A7303F00BFA2046F3
:1050B000FFF772FF3A4631462846FCF75DFE00BF17
:1050C0004015002000ED00E098040020A94E0008E3
:1050D000980100201801002027B20008C016002007
:1050E0002DE9F341044617461E46EFF311881023BD
:1050F00083F31288BFF36F8FC368334A7BB1806834
:105100009168884219D057EA060318D188F31188AC
:10511000BFF36F8F6FF00F0002B0BDE8F0819168B0
:1051200091F90E1021610133E3609368A36088F365
:105130001188BFF36F8F0020EEE72169F2E791F944
:105140000E1090F90E309942A8BF19466FF07E02FA
:105150009142B8BF11468B422DDD03F06FF9054631
:10516000CDE9007619482246414600F0CBF90028E7
:10517000E1D0EFF31186102383F31288BFF36F8F12
:10518000A068D0B1236821699C420AD04BB193F941
:105190000E309942A8BF19466FF07E039942B8BFFE
:1051A000194603F04BF940B10848314600F01AFAAD
:1051B0006FF00A00B0E70025D2E7002DF4D186F3A6
:1051C0001188BFF36F8FF3E798040020EA0C0020EA
:1051D00038B58368044663B3194A926893422BD169
:1051E000C368012B03D9013BC360002038BDEFF336
:1051F0001185102383F31288BFF36F8F01698068D4
:1052000003F01CF9204603F091F9A06058B190F921
:105210000E2022610022826703F054F909482946D2
:1052200000F0E0F9E1E7E06085F31188BFF36F8FEC
:10523000DBE76FF01500D9E74FF0FF30D6E700BF8E
:1052400098040020EA0C00202DE9F043073285B0D5
:1052500022F007020E461F461099017300F1580311
:105260007F32C0E916330446002322F03F020421B6
:10527000836041733F2A0F98A073C4E90633E37338
:1052800006F14009A2F1400805D883F31188BFF365
:105290006F8F084602DFB51829462046FCF7D4FA7E
:1052A00007300E9B20F00700A066C4E9189802930F
:1052B0000D9B01932D1A0C9B00932A463B463146C9
:1052C0002046FCF727FD00236365044B9B6803B170
:1052D000DB6EE366284605B0BDE8F0839804002045
:1052E00038B50D4D2B4653F8184F9C4200D004B9E9
:1052F000EC68AB6838B95A7BD20604D1A26912B9FE
:10530000DA897F2A05D89C4202D0204600F01EFA96
:1053100023466B6138BD00BF9804002008B590F9A2
:105320000D20437B002A014604DA03F07F03437318
:1053300003F08EF8044B9868431A58425841BDE870
:105340000840FFF7CDBF00BF9804002070B490F96B
:105350000D30427B002B29DBD30627D183692BBB81
:10536000134962F07F0242730A4652F8184F944282
:1053700018BF2346CC6923B9C0E900242060C86166
:105380000CE090F90E5093F90E60B5420AD0AE428F
:1053900008DD5A68C0E900321060586070BC002017
:1053A000FFF79EBF9C42E7D01B68E4E770BC7047E4
:1053B000980400202DE9F041002A427B0E460CBFE4
:1053C00010210821114204460FD141EA0203D209FB
:1053D00018D1437308291BD00120FFF781FFBFF3C9
:1053E0005F8F637B23F060036373274B9B68A3424B
:1053F00043D1EFF30583002B3FD13046BDE8F041A8
:10540000FCF7D8BB03F07F03437303F021F8E1E717
:10541000A36813B1204603F023F804F1180003F049
:10542000C2F8A56D04F15807AF4211D04FF0000843
:1054300075B1284603F014F805F1180003F0B3F82D
:10544000C5F878802846FFF781FFA56DAF42EFD100
:105450000D4DAB689C42BFD1EFF30583002BBBD051
:105460000120FFF73DFF094BAB6040F201129A812A
:105470000022C3E91822DA66B1E786F31188BFF388
:105480006F8FBDE8F08100BF9804002098010020D4
:1054900070B590F90D20437B002A014604DA03F031
:1054A0007F03437302F0D4FF4B7B154A63F07F0305
:1054B00010464B7350F8183FD469834208BF00234D
:1054C00023B9C1E900042160D1610CE091F90E50CB
:1054D00093F90E60B5420ED0AE420CDD5868C1E9BA
:1054E0000030016059609068431A5842BDE870402E
:1054F0005841FFF7F5BE9C42E3D01B68E0E700BFD0
:1055000098040020F8B5124B0C461146114A9868D1
:105510001060DDE90676EFF31182102282F3128823
:10552000BFF36F8F9D68284602F0A4FFB6F1FF3FDE
:1055300008BFB7F1FF3F06D007493A46334605F1A9
:10554000180000F0C7F92046BDE8F840FCF732BB70
:1055500098040020B804002025850008F8B504460A
:10556000EFF31186102383F31288BFF36F8F437B11
:10557000DA0649B219D18569BDB903F07F034373D7
:1055800002F066FF437B164A817363F07F03437327
:10559000134653F8180F984218BF0546D0695DB9F5
:1055A000C4E900300460D46111E0A173002086F3E7
:1055B0001188BFF36F8FF8BD95F90E70B9420BD00B
:1055C0008F4209DD6B68C4E900531C606C600120E8
:1055D000FFF786FE0120EAE7A842E1D02D68DEE76A
:1055E0009804002049B9EFF3058030B9054B5A699A
:1055F0009B689A4201D0FCF7DDBA81F31188BFF3B2
:105600006F8F70479804002010B5EFF311841022BB
:1056100082F31288BFF36F8F427B510704D484F367
:105620001188BFF36F8F10BD22F004024273FFF7A1
:105630008DFE21460248BDE81040FFF7D3BF00BFF2
:10564000EB0C0020034648B9EFF3058232B9064A55
:1056500051699268914201D0FCF7ACBA83F311888A
:10566000BFF36F8F704700BF98040020EFF31181E4
:10567000102383F31288BFF36F8F054B9A68D37B97
:10568000013BD37381F31188BFF36F8F704700BF65
:105690009804002038B5EFF31185102484F31288A4
:1056A000BFF36F8F0A4B9A68D37B0133D37300200B
:1056B000FFF716FE85F31188BFF36F8FEFF31180AC
:1056C00084F31288BFF36F8FBDE83840FFF7BABF8D
:1056D00098040020024B03F11802C3E90622704728
:1056E00098040020014B9868704700BF9804002080
:1056F000044BC01A044BC0105843044B01221A54E7
:10570000704700BF18020020ABAAAAAAEC0C002028
:10571000C3897F2B12D80A4B1B6863B1094B90F9E0
:105720000E201B689A4209DB437BDB0606D1064B41
:10573000C31A18BF012303F0010070470023FAE7E2
:10574000C0040020BC0400209800002070B50E4B5F
:105750000E4C1E7C06EB460304EBC30405462046B4
:1057600002F021FF0A4B002228469A55FFF7D0FF8E
:1057700048B1084B08491A68013A2046D317BDE8DA
:10578000704000F0A7B870BD9804002018020020F7
:10579000EC0C0020C0040020F156000838B5EFF3EF
:1057A0001185102383F31288BFF36F8F104B114ABA
:1057B0009C681068A04206D1FFF7C8FF85F31188E6
:1057C000BFF36F8F38BD00211B7C11600A4AD35C88
:1057D000002BF3D02046FFF79BFF0028EED0637B21
:1057E000DB0602D12046FFF753FE2046E4E700BF68
:1057F00098040020B8040020EC0C002009480A4A54
:105800000A4908B5121A02F00CFE094A09490A4869
:1058100002F007FE09480A4A0A49BDE80840121A80
:1058200002F0FFBD00000020880000207CB20008CC
:10583000000000007CB20008000000200000001002
:105840000000001004B30008034B1B680BB9FDF700
:105850008FB90020704700BFC404002030B570B17C
:105860000B4B5B6898420AD0036843B1D3E904212B
:10587000D0E90445121941EB0501C3E90421D0E93F
:10588000003213605A600023C0E9003330BD00BF0E
:105890005000002010B50E4B1C689C4204D1FFF74D
:1058A000D3FF6FF0004010BDFFF7CEFF002CF8D003
:1058B000D4E904321B1A62EBE072B3F1004F72F1CB
:1058C0000001EEDA002AACBF18460020EBE700BF6B
:1058D00050000020B3F1FF3F08BFB2F1FF3FF8B521
:1058E00004461D4616465ED08160EFF311871023F3
:1058F00083F31288BFF36F8F013275F1FF3324DA1F
:105900002E49D1E900206FF001039B1A4FF0FF32BE
:1059100062EB00009E1B60EB0500012E70F100039E
:1059200001DA01260020C4E90460254ED6F800C043
:105930007568B44508BF4FF0000CBCF1000F0DD1E5
:10594000C4E900652C6074601CE0FFF77DFF013640
:1059500045F10005361845EBE070E4E7DCE904208A
:10596000D4E90431934271EB000E1DDAD21ADCF84F
:10597000043060EB0100CCE90420C4E900C31C60E2
:10598000CCF804403368B34209D09C4207D10D4B98
:105990001C6824B9FFF77EFF2146FDF76DF887F3F9
:1059A0001188BFF36F8FF8BD9B1A61EB0001AC4506
:1059B000C4E90431C4D0DCF800C0BEE730020020E6
:1059C00050000020C40400202DE9F84FEFF3118CA3
:1059D000102383F31288BFF36F8FDFF8B0A0DFF8D6
:1059E000B0902C4FC9F80000DAF8000000245045B0
:1059F00008BF00200025D7E90021D9F80030E04693
:105A000078B3D0E9046C4FEAE37EB3427EEB0C0B33
:105A100005DAF61A6CEB0E04C0E9046421E0B21852
:105A200041EBE671C0E90445C7E90021FFF716FF25
:105A300088F31188BFF36F8F83689847EFF311885D
:105A4000102383F31288BFF36F8FD9F80030DAF890
:105A500000009B1B5045C446C9F80030CBD1D7E9A4
:105A600000219A1841EBE3730024C7E90023C9F829
:105A70000040FFF70FFF2146FCF7FEFF88F3118877
:105A8000BFF36F8FBDE8F84FFFF788BE50000020CE
:105A9000C40400203002002010B5EFF3118410235D
:105AA00083F31288BFF36F8FFFF7CEFE054A0346DC
:105AB000D2E90001181841EBE37184F31188BFF3B8
:105AC0006F8F10BD30020020014800F032BD00BFD2
